:100000000C9462000C948A000C948A000C948A0070
:100010000C948A000C948A000C948A000C948A0038
:100020000C948A000C948A000C948A000C948A0028
:100030000C948A000C948A000C948A000C948A0018
:100040000C9452030C948A000C9404130C94DE124A
:100050000C948A000C948A000C948A000C948A00F8
:100060000C948A000C948A000000000025002800EF
:100070002B0000000008000201000003040700003C
:1000800000000000000000000000230026002900FE
:1000900000000000240027002A00040404040404D3
:1000A0000404020202020202030303030303010227
:1000B00004081020408001020408102001020408F6
:1000C0001020CB1711241FBECFEFD8E0DEBFCDBF6D
:1000D00024E0A2EFB2E001C01D92AB30B207E1F71D
:1000E00012E0A0E0B1E0ECE9F5E302C005900D926A
:1000F000A23FB107D9F710E0C2E6D0E004C02197D3
:10010000FE010E947A18C136D107C9F70E94361342
:100110000C94CC1A0C9400003FB7F8948091010322
:1001200090910203A0910303B091040326B5A89B0C
:1001300005C02F3F19F00196A11DB11D3FBFBA2F79
:10014000A92F982F8827820F911DA11DB11DBC01D9
:10015000CD0142E0660F771F881F991F4A95D1F79E
:1001600008950F931F93CF93DF93EC010E94C91260
:100170008C016AED71E0CE010E94C912800F911FBF
:10018000DF91CF911F910F9108950E94A51AAF9210
:10019000BF92CF92DF92EF92FF920F931F93CF9374
:1001A000DF9300D0CDB7DEB77A836983BA01A901A6
:1001B000E981FA81F770082F10E0000F111F015F2D
:1001C0001C4FD8018D919C918E0F9F1F2E0F3F1FAA
:1001D0002130384098F07A015B0120E038E0690175
:1001E000CE1ADF0AA6010E94930BA7014C195D09E4
:1001F000B5016C0D7D1DF801808191810F900F90EC
:10020000DF91CF911F910F91FF90EF90DF90CF90F2
:10021000BF90AF900C94930B9F92AF92BF92CF92EE
:10022000DF92EF92FF920F931F93CF93DF93982E5D
:100230008B015A01690164E270E00E941E0CE82EF5
:10024000F12C65E270E0892D0E941E0CFE2CEE243C
:10025000E82AE701C00FD11F9E013770E92CF12C6D
:10026000C701880F991FAC01495F5C4F7A01FA0101
:1002700080819181820F931FA9014C0D5D1D41303A
:10028000584090F000E018E0021B130BA801B501E4
:100290000E94C30BA601401B510BB501600F711FDB
:1002A000F7018081918102C0A601B5010E94C30BB4
:1002B000CC0DDD1D4D2F64E270E0892D0E94140CE1
:1002C0004C2F65E270E0892DDF91CF911F910F9146
:1002D000FF90EF90DF90CF90BF90AF909F900C94E5
:1002E000140CFF920F931F93CF93DF93F82EC0E06F
:1002F000D0E08F2D0E945C0C8C01892B21F08F2D7A
:100300000E945C0CEC01C017D10799F7CE01DF9178
:10031000CF911F910F91FF90089590E0FC01EE584E
:10032000FF4F3491FC01E255FF4F2491FC01E6564A
:10033000FF4FE491EE2309F43BC0332339F133300E
:1003400091F038F43130A9F0323001F584B58F7D69
:1003500012C0373091F03830A1F03430B9F48091C8
:1003600080008F7D03C0809180008F778093800014
:100370000DC084B58F7784BD09C08091B0008F77A0
:1003800003C08091B0008F7D8093B000F0E0EE0F4D
:10039000FF1FE859FF4FA591B4918FB7F894EC91E6
:1003A000611103C020952E2301C02E2B2C938FBFEB
:1003B0000895CF93DF9390E0FC01E255FF4F249125
:1003C000FC01E656FF4F8491882361F190E0880F8D
:1003D000991FFC01E057FF4FC591D491FC01E859EA
:1003E000FF4FA591B491611109C09FB7F89488811E
:1003F000209582238883EC912E230BC0623061F418
:100400009FB7F8943881822F809583238883EC915D
:100410002E2B2C939FBF06C08FB7F894E8812E2B0C
:1004200028838FBFDF91CF9108958F929F92AF92D3
:10043000BF92CF92DF92EF92FF926B017C010E94FC
:100440008C004B015C01C114D104E104F104F1F012
:100450000E948C00DC01CB0188199909AA09BB090B
:10046000883E9340A105B10570F321E0C21AD1087E
:10047000E108F10888EE880E83E0981EA11CB11CEB
:10048000C114D104E104F10419F7DDCFFF90EF901E
:10049000DF90CF90BF90AF909F908F9008952FB72F
:1004A000F8946091FD027091FE028091FF0290919C
:1004B00000032FBF0895CF92DF92EF92FF920F9328
:1004C0001F93CF93DF93CDB7DEB7C054D1400FB6A3
:1004D000F894DEBF0FBECDBF0E944F020091D7033C
:1004E0001091D8032091D9033091DA036B017C017C
:1004F000C01AD10AE20AF30A40EDC41647E0D40656
:10050000E104F10418F48091DF03BCC06093D703C9
:100510007093D8038093D9039093DA031092D20397
:100520001092D1031092D0031092CF031092CE03F9
:1005300061E08091D3030E948D016AEF70E080E05A
:1005400090E00E94150261E08091D3030E94D901DE
:1005500060E08091D3030E948D0164E170E080E04F
:1005600090E00E941502F89461E08091D3030E940C
:100570008D018BE990E00197F1F762E08091D30360
:100580000E94D90183E290E00197F1F780E00E9498
:10059000C10F672B682B692B21F41092DF0378942D
:1005A0003EC081E00E94C10F672B682B692BA9F325
:1005B0008E010F5F1F4F6E018FEBC81A8EEFD80AA6
:1005C000780180E00E94C10FF7016083718382830C
:1005D000938381E00E94C10FF70164837583868352
:1005E0009783F8E0EF0EF11CEC14FD0451F77894BA
:1005F00020E030E0F8014081518162817381C48044
:10060000D580E680F780411551056105710529F017
:10061000C114D104E104F10421F41092DF0380E05D
:1006200031C0F90183E0F595E7958A95E1F7E2534A
:10063000FC4F8081880F4C155D056E057F0508F421
:10064000816080832F5F3F4F085F1F4F2832310545
:1006500089F62091D20330E04091CE038091CF0300
:1006600090E0840F911D4091D003840F911D409123
:10067000D103840F911D99272817390771F681E05E
:100680008093DF03C05CDE4F0FB6F894DEBF0FBE71
:10069000CDBFDF91CF911F910F91FF90EF90DF9031
:1006A000CF9008951F920F920FB60F9211242F939F
:1006B0003F938F939F93AF93BF938091FD0290914F
:1006C000FE02A091FF02B09100033091FC0223E0F2
:1006D000230F2D3720F40196A11DB11D05C026E87A
:1006E000230F0296A11DB11D2093FC028093FD02F1
:1006F0009093FE02A093FF02B09300038091010348
:1007000090910203A0910303B09104030196A11DEF
:10071000B11D8093010390930203A0930303B09350
:100720000403BF91AF919F918F913F912F910F90B3
:100730000FBE0F901F9018954F925F926F927F920D
:10074000EF92FF920F931F93CF93DF93CDB7DEB756
:10075000A1970FB6F894DEBF0FBECDBF7C01FA01A2
:10076000CB0119A2223008F42AE08E010F5D1F4F41
:10077000422E512C612C712CBF01A30192010E94C9
:10078000AA1AF901CA01015011096A3014F4605D16
:1007900001C0695CD8016C93232B242B252B61F7B6
:1007A000B801C7010E94C912A1960FB6F894DEBF26
:1007B0000FBECDBFDF91CF911F910F91FF90EF90B2
:1007C0007F906F905F904F900895CF93DF931F922B
:1007D000CDB7DEB76983DC01ED91FC910280F38136
:1007E000E02D41E050E0BE016F5F7F4F09950F9013
:1007F000DF91CF910895DC01ED91FC91048CF58D92
:10080000E02D099591E089270895862F089581E0CC
:1008100086270895FC018485843011F00C94BB0C6C
:1008200080E090E008958F929F92AF92BF92CF9216
:10083000DF92EF92FF920F931F93CF93DF936C01A0
:100840005B017A01FC01C485C43041F481E090E091
:10085000F6019383828380E090E057C08A014130A3
:10086000584010F000E018E080E590E00E948F0C06
:100870008C2F0E9471014C0163E070E08C2F0E946C
:100880001E0CD82F0E948E0CD73111F0DC3121F4D0
:100890008016910648F302C000E010E080E590E089
:1008A0000E948F0C9801A50160E070E08C2F0E94DF
:1008B0000C0160E270E08C2F0E94A90D62E070E0F4
:1008C0008C2F0E941E0C84FD14C063E070E08C2FFE
:1008D0000E941E0C811106C00E948E0C8C2F0E945B
:1008E000490DB4CF0E948E0C80E590E00E948F0CE1
:1008F000E5CF40E162E070E08C2F0E94140C0E9472
:100900008E0C012B09F4A2CFC701DF91CF911F916B
:100910000F91FF90EF90DF90CF90BF90AF909F909E
:100920008F900895CF92DF92FF920F931F93CF93F2
:10093000DF93FC012485243009F072C06A01EB01C9
:100940008C01F12C8F2D0E949D0D811103C0F801A7
:10095000F48607C08B7F8831D1F3F394F4E0FF1263
:10096000F1CFF8018485843009F45AC02091000148
:10097000309101012F5F3F4F11F420E030EC3093B4
:10098000010120930001409100015091010120E0FC
:1009900061E00E945B0DF801F4848A818F3F51F47D
:1009A0008B818F3F91F48C818F3F79F48D818F3FC4
:1009B00061F433C0811109C08B81811106C08C8123
:1009C000811103C08D81882341F1C114D10429F123
:1009D00080E590E00E948F0CBE016E5F7F4F8F2DEF
:1009E0000E94850CB6018F2D0E94740C64E070E0AB
:1009F0008F2D0E94A90D0E948E0CC8010E94BB0978
:100A0000873189F061E070E080E090E00E9415029B
:100A1000C8010E94BB098111F0CF84E0F8018487EE
:100A200080E090E002C081E090E0DF91CF911F91E3
:100A30000F91FF90DF90CF9008952F923F924F92A9
:100A40005F926F927F928F929F92AF92BF92CF925E
:100A5000DF92EF92FF920F931F93CF93DF93CDB767
:100A6000DEB765970FB6F894DEBF0FBECDBF7C0131
:100A70006B013A01FB0120E080E090E06AE03191F7
:100A8000332309F140ED430F4A3080F4689FA00101
:100A9000699F500D1124CA01C097830F911D37FD26
:100AA0009A958F3F910559F350F313C03E3289F464
:100AB000233079F0D301A20FB11D12968C932F5FD2
:100AC00080E090E0DCCF233021F4F301858381E0E6
:100AD00021C0F70142815381648175818091BE03F9
:100AE0009091BF03A091C003B091C103481759076B
:100AF0006A077B0709F49EC10E944F028701085FC5
:100B00001F4F6F7077277C5FC8010E944D098130AD
:100B100019F080E090E0F3C18CEC91E09A83898336
:100B2000F70182819381A481B5818B839C83AD83FE
:100B3000BE8345E350E0BE016F5F7F4FC8010E9456
:100B40008C08892B19F4C12CD12C6FC10E944F0243
:100B5000F701778366837627672776277A83698309
:100B600042E050E0BE016F5F7F4FC8010E949112CA
:100B700081E090E09E878D8742E050E0BE01635F98
:100B80007F4FC8010E94911280E091E09E878D877F
:100B900042E050E0BE01635F7F4FC8010E949112A6
:100BA0001E861D8642E050E0BE01635F7F4FC80194
:100BB0000E94911242E050E0BE01635F7F4FC80186
:100BC0000E94911242E050E0BE01635F7F4FC80176
:100BD0000E9491125601F5018081882311F1F601DE
:100BE0005F018191811115C045018C189D08181471
:100BF000190494F48F8641E050E0BE01615F7F4F9D
:100C0000C8010E949112A401B601C8010E9491126C
:100C100003C08E3229F7E8CF6501FFEFCF1ADF0A54
:100C2000DACF1F8641E050E0BE01615F7F4FC8010F
:100C30000E949112C12CDD24D394DE86CD8642E041
:100C400050E0BE01635F7F4FC8010E949112DE86B3
:100C5000CD8642E050E0BE01635F7F4FC8010E9435
:100C60009112C8010E945408892B09F46CCF63E0EB
:100C7000A62EB12CF2E06F0E711C0E944F021B01D8
:100C80002C01C8010E94381218161906A4F00E94FF
:100C90004F02DC01CB0182199309A409B5098938F7
:100CA0009341A105B105D0F462E370E080E090E0EB
:100CB0000E941502E6CFF70142815381648175815C
:100CC000808D918DA28DB38D481759076A077B07D8
:100CD00041F4848D958DC59721F406C02FEF3FEF29
:100CE0009AC02EEF3FEF97C0F70181A192A10C9718
:100CF0000CF4A6C04CE050E0BE016F5F7F4FC8010E
:100D00000E94F0118B8190E0982F88272C81822BF4
:100D10009A8B898B298130E0322F22274A81242B1C
:100D2000F701468157814217530709F086C097FFA4
:100D300084C08F709270892B09F0DEC0CF80D12CD7
:100D4000DC2CCC248885C82AC114D10409F4D1C074
:100D5000812C912C8D8190E0982F88272E81822BD9
:100D60008816990608F46FC0812C912C41E050E060
:100D7000BE016D5E7F4FC8010E94F0118B89982FD4
:100D8000907C09F093C0811186C08B898111EECFD0
:100D900042E050E0BE01615F7F4FC8010E94F01148
:100DA00042E050E0BE01635F7F4FC8010E94F01136
:100DB000C8010E940F12C8010E940F12C8010E94B0
:100DC0000F12C8010E940F1242E050E0BE016F5E98
:100DD0007F4FC8010E94F0118F859889811591403D
:100DE00009F069C02D853E8532272327322721301F
:100DF000310509F060C089899A898115944009F00C
:100E000075C044E050E0B301C8012C8B3D8B0E94BB
:100E1000F0112C893D896901F1E0AF1AB10829F080
:100E20002FEFC216D20609F428CFC8010E94380954
:100E3000C60165C08EEF9FEF62C02CEF3FEFEBCF96
:100E40002DEF3FEFE8CF41E050E0BE01635F7F4F01
:100E5000C8010E94F0118D85811113C08D8581110B
:100E6000F2CFC8010E940F12C8010E940F12C801E0
:100E70000E940F12C8010E940F12FFEF8F1A9F0AE3
:100E800069CF8D859FEF980F9D87882339F3C8011F
:100E90000E940F12F6CF8B899FEF980F9B8B8823B0
:100EA00009F473CFC8010E940F12F5CFC8010E9448
:100EB0000F121B8A6ACF412C512C89899A89982755
:100EC000892798274816590638F4C8010E940F123E
:100ED0008FEF481A580AF1CFEFEF8E1A9E0A8C1442
:100EE0009D0409F043CF26EF3FEF95CF27EF3FEF6B
:100EF00092CF2AEF3FEF8FCF2BEF3FEF8CCF65964E
:100F00000FB6F894DEBF0FBECDBFDF91CF911F911A
:100F10000F91FF90EF90DF90CF90BF90AF909F9098
:100F20008F907F906F905F904F903F902F9008959B
:100F3000CF92DF92EF92FF920F931F93CF93DF93A5
:100F4000CDB7DEB7AF970FB6F894DEBF0FBECDBFFB
:100F50007C016A010CEC11E01A8309831C861B8654
:100F600088EE93E0A0E0B0E08D879E87AF87B88BD6
:100F700084E791E09A878987188F0F8B198E1A8ED4
:100F80001B8E1C8E84E089A31DA30CA31EA21FA28E
:100F900018A619A68091B6039091B703A091B80343
:100FA000B091B9038CA79DA7AEA7BFA78B839C83E5
:100FB000AD83BE8318861F82AE014C5D5F4FCE01AC
:100FC00001960E941D0581309105B1F4D701ED9184
:100FD000FC910484F585E02D1BA70AA78EA19FA193
:100FE000A8A5B9A58CA79DA7AEA7BFA7A601BE01BE
:100FF000665D7F4FC7010995AF960FB6F894DEBFC7
:101000000FBECDBFDF91CF911F910F91FF90EF9059
:10101000DF90CF900895FC01818D928D0895FC01A1
:101020008489958908952CEC31E0FC01318320837B
:10103000FB014089518962897389FC014283538392
:10104000648375830895DC01ED91FC91008CF18D32
:10105000E02D0994CF93DF931F92CDB7DEB769835C
:10106000DC01ED91FC910280F381E02D41E050E044
:10107000BE016F5F7F4F09950F90DF91CF9108956B
:10108000FC019485FB018485981303C081E09430B2
:1010900009F480E0089521E0FC018485843009F49E
:1010A00020E0822F08950895CF93FC01C08D80E544
:1010B00090E00E948F0C60E270E08C2F0E94A90DDE
:1010C00062E070E08C2F0E941E0C84FD19C062E06B
:1010D00070E08C2F0E941E0C83FF0BC048E162E081
:1010E00070E08C2F0E94140C0E948E0C80E090E027
:1010F00011C00E948E0C80E590E00E948F0CE0CF22
:1011000040E162E070E08C2F0E94140C0E948E0C73
:1011100081E090E0CF910895FF920F931F93CF93BA
:10112000DF93FB01DC0157961C921E92569758964E
:10113000FC908281811109C08381811106C0848164
:10114000811103C085818823C1F041155105A9F0A3
:101150008A01EF0180E590E00E948F0CBE016E5F76
:101160007F4F8F2D0E94850CB8018F2D0E94740C2B
:101170000E948E0C81E090E002C080E090E0DF9160
:10118000CF911F910F91FF900895CF92DF92EF9230
:10119000FF920F931F93CF93DF93CDB7DEB7AF9737
:1011A0000FB6F894DEBF0FBECDBF7C016A010CEC18
:1011B00011E01A8309831C861B8688EE93E0A0E069
:1011C000B0E08D879E87AF87B88B84E791E09A87E0
:1011D0008987188F0F8B198E1A8E1B8E1C8E84E0B8
:1011E00089A31DA30CA31EA21FA218A619A6809155
:1011F000B6039091B703A091B803B091B9038CA73F
:101200009DA7AEA7BFA78B839C83AD83BE831886A3
:101210001F82AE014C5D5F4FCE0101960E941D05FD
:1012200081309105B1F4D701ED91FC910088F189ED
:10123000E02D1BA70AA78EA19FA1A8A5B9A58CA7E1
:101240009DA7AEA7BFA7A601BE01665D7F4FC701E0
:101250000995AF960FB6F894DEBF0FBECDBFDF91F4
:10126000CF911F910F91FF90EF90DF90CF90089555
:10127000CF93DF93EC01888D843061F00E94490D9B
:10128000E88DF0E0EE0FFF1FEE50FD4F118210824F
:1012900084E0888FDF91CF910895EF92FF921F93A2
:1012A000CF93DF93FC01208D243011F080E01CC02F
:1012B0007B01EC0110E0812F0E949D0D811102C085
:1012C000188F05C08831E1F31F5F1430A1F7888DB6
:1012D000843061F3FD86EC861A8E198E20E0A7011A
:1012E00062E00E945B0D81E0DF91CF911F91FF9042
:1012F000EF9008950F931F93CF93DF931F92CDB775
:10130000DEB78C01DC01ED91FC910480F581E02DCC
:101310000995892B51F0BE016F5F7F4FF8018485DD
:101320000E94920C898190E002C08FEF9FEF0F9096
:10133000DF91CF911F910F910895FC0184850C944A
:10134000DB0CCF93DF931F92CDB7DEB741E050E0C7
:10135000BE016F5F7F4FFC0184850E94DB0C181675
:1013600019061CF4898190E002C08FEF9FEF0F9067
:10137000DF91CF910895FC018485843011F00C94A5
:101380009D0D80E008958F929F92AF92BF92CF9271
:10139000DF92EF92FF920F931F93CF93DF93CDB71E
:1013A000DEB72D970FB6F894DEBF0FBECDBF7C0120
:1013B00000E010E038EE832E33E0932EA12CB12C08
:1013C0004CE2C42E41E0D42E1C821B828D829E8270
:1013D000AF82B886DA82C9820D87CE0101960E945B
:1013E000BB09811125C0F7014481558120E061E0EE
:1013F000802F0E945B0D80E590E00E948F0C63E0DF
:1014000070E0802F0E941E0C833129F462E070E0AE
:10141000802F0E94A90D0E948E0CF7018481958176
:10142000000F111FF801EE50FD4F9183808305C01E
:101430000F5F1F4F0430110539F62D960FB6F89443
:10144000DEBF0FBECDBFDF91CF911F910F91FF90F7
:10145000EF90DF90CF90BF90AF909F908F900895C6
:10146000CF93DF93FC0124852430D1F0EC010E945E
:10147000BB09843181F0882371F0883161F08C31AF
:1014800061F4E881F9810480F581E02DCE010995B0
:1014900021E0892B19F420E001C021E0822F01C056
:1014A00080E0DF91CF910895CF92DF92EF92FF928B
:1014B0001F93CF93DF93FC0114851430A9F1EC0145
:1014C00080E590E00E948F0C68E070E0812F0E9420
:1014D000A90D0E948E0C0E944F026B017C01CE016F
:1014E0000E94BB098823B1F061E070E080E090E0E9
:1014F0000E9415020E944F02DC01CB018C199D094C
:10150000AE09BF09883E9340A105B10540F38C8523
:101510000E94490DEC85F0E0EE0FFF1FEE50FD4FED
:101520001182108284E08C87DF91CF911F91FF9010
:10153000EF90DF90CF9008954F925F926F927F92DD
:101540008F929F92AF92BF92CF92DF92EF92FF92D3
:101550001F93CF93DF93CDB7DEB72D970FB6F894D7
:10156000DEBF0FBECDBF7C0192EFA92E92E0B92E57
:1015700010E0C12CD12C28EE422E23E0522E612CFB
:10158000712C3CE2832E31E0932E1C821B824D8213
:101590005E826F8278869A8289821D87D5012D911D
:1015A0003D915D01F7018481958128173907B1F4D8
:1015B000CE0101960E94BB09843169F0CE010196EB
:1015C0000E94BB098C3151F4CE0101960E940A049D
:1015D000892B91F003C0CC24C394D12C1F5F14300D
:1015E000A1F6CD2871F4D701ED91FC910480F5812D
:1015F000E02DC701099505C0CE0101960E94540A4D
:10160000EDCF2D960FB6F894DEBF0FBECDBFDF91A4
:10161000CF911F91FF90EF90DF90CF90BF90AF9050
:101620009F908F907F906F905F904F9008952F9232
:101630003F924F925F926F927F928F929F92AF9262
:10164000BF92CF92DF92EF92FF920F931F93CF93AF
:10165000DF93CDB7DEB72E970FB6F894DEBF0FBE7F
:10166000CDBF7C016B015A010E949C0A02EF12E07F
:1016700020E0612C712C88EE282E83E0382E412C3E
:10168000512C9CE2892E91E0992E1C821B822D8286
:101690003E824F8258869A8289822D87F801419135
:1016A00051918F01F701848195814817590741F4C1
:1016B000CE0101962E870E94BB092E858731E9F065
:1016C0002F5F243011F7C3012E960FB6F894DEBFBA
:1016D0000FBECDBFDF91CF911F910F91FF90EF9083
:1016E000DF90CF90BF90AF909F908F907F906F9042
:1016F0005F904F903F902F900895A501B601CE01C5
:1017000001962E870E941304680E791E2E85D8CF6D
:101710002A9A08952A9808958EBD00000DB407FEF8
:10172000FDCF8EB50895CF92DF92EF92FF920F9387
:101730001F93CF93DF93EC017A018B016C01C40EF0
:10174000D51ECC15DD05A9F00E948A0B8FE00E9402
:101750008C0B8D2F0E948C0B8C2F0E948C0B219652
:1017600080E00E948C0BF80181938F010E94880B0E
:10177000E8CFC701DF91CF911F910F91FF90EF90BC
:10178000DF90CF900895CF92DF92EF92FF920F9368
:101790001F93CF93DF93EC017A018B016C01C40E90
:1017A000D51ECC15DD05A1F00E948A0B80EF0E94AA
:1017B0008C0B8D2F0E948C0B8C2F0E948C0B2196F2
:1017C000F80181918F010E948C0B0E94880BE9CF58
:1017D000C701DF91CF911F910F91FF90EF90DF90A4
:1017E000CF9008951F93CF93DF9300D0CDB7DEB78E
:1017F000182F6A8399830E948A0B80EF0E948C0BBA
:101800009981892F0E948C0B812F0E948C0B6A81F9
:10181000862F0E948C0B0E94880B81E00F900F9006
:10182000DF91CF911F9108959B0190E00496982F2E
:101830008827642F820F931F0C94F20B0F931F9332
:10184000CF93DF931F92CDB7DEB790E00496982F29
:1018500088278C01060F171F0E948A0B8FE00E94B9
:101860008C0B812F0E948C0B802F0E948C0B80E0B0
:101870000E948C0B89830E94880B89810F90DF91D5
:10188000CF911F910F9108951F93CF93DF93182F3E
:1018900066E270E00E941E0CC82FD0E067E270E0A4
:1018A000812F0E941E0CDC2FCC279E01282BC90102
:1018B000DF91CF911F9108951F93CF93DF93182F3E
:1018C00060E270E00E941E0CC82FD0E061E270E080
:1018D000812F0E941E0CDC2FCC279E01282BC901D2
:1018E000DF91CF911F910895CF93DF93C82FD62F0B
:1018F000472F60E170E00E94140C4D2F61E170E011
:101900008C2FDF91CF910C94140C90E0982F8827A6
:1019100044E050E0845F9B4F0C94C30B08958CBD52
:101920009DBD0895EF92FF921F93CF93DF93182FE1
:101930007B0180E590E00E948F0C68E270E0812FCF
:101940000E941E0CC82FD0E069E270E0812F0E9437
:101950001E0CDC2FCC27BE01682B21E030E0A70154
:10196000812F0E94C70081E090E0DF91CF911F910D
:10197000FF90EF900895FF920F931F93CF93DF9303
:10198000F82E80E590E00E948F0CC0E0D0E08F2D13
:101990000E94440C8C01892B21F08F2D0E94440C55
:1019A000EC01C017D10799F7CE01DF91CF911F91BC
:1019B0000F91FF900895AF92BF92DF92EF92FF9246
:1019C0000F931F93CF93DF93D82E7B018A0180E57D
:1019D00090E00E948F0CC0E0D0E08D2D0E94440C5E
:1019E0005C01892B21F08D2D0E94440CEC01CA155D
:1019F000DB0599F7209799F463E070E08D2D0E9444
:101A00001E0C8431D9F18823C9F1C1E0D0E08C31BA
:101A100011F4C0E0D0E0D195C195D1092FC00C17C9
:101A20001D070CF4E8011C161D0644F568E270E081
:101A30008D2D0E941E0C082F10E069E270E08D2DA4
:101A40000E941E0C102F0027082B9E01A701B80131
:101A50008D2D0E94C7000C0F1D1F412F68E270E002
:101A60008D2D0E94140C402F69E270E08D2D0E9494
:101A7000140C60E470E08D2D0E94A90DCE01DF9161
:101A8000CF911F910F91FF90EF90DF90BF90AF909B
:101A90000895CF93C82F80E590E00E948F0C60E1FD
:101AA00070E08C2F0E94A90D4FEF62E070E08C2F48
:101AB000CF910C94140CFF920F931F93CF93DF934D
:101AC00000D0CDB7DEB7F82E8A012A8369830E9441
:101AD000490D80E590E00E948F0C2A816981462F94
:101AE000422B60E070E08F2D0E94140C011511054F
:101AF00051F400910503109106030F5F1F4F1093DF
:101B0000060300930503412F64E070E08F2D0E94CF
:101B1000140C402F65E070E08F2D0E94140C61E0E2
:101B200070E08F2D0E94A90D81E00F900F90DF9142
:101B3000CF911F910F91FF900895CF93C82F80E50B
:101B400090E00E948F0C63E070E08C2FCF910C949A
:101B50001E0CCF93C82F462F61E070E00E94140C3A
:101B600061E070E08C2F0E941E0C8111F9CFCF91A3
:101B70000895CF92DF92EF92FF920F931F93CF932E
:101B8000DF93CDB7DEB7C254D1090FB6F894DEBFEC
:101B90000FBECDBFFC0182819381A481B5812396C4
:101BA0008CAF9DAFAEAFBFAF239721E023962FAF91
:101BB000239723964CAD5DAD6EAD7FAD23974BABB8
:101BC0005CAB6DAB7EAB89AF9AAFABAFBCAF8DA753
:101BD0009EA7AFA7B8AB28AB4DA55EA56FA578A90A
:101BE0004FA358A769A77AA72EAB4BA95CA96DA9EB
:101BF0007EA949A35AA36BA37CA38B8F9C8FAD8F27
:101C0000BE8F4CEC51E05C8B4B8B3FEF3D8B3E8BA2
:101C10003F8B188E5E874D872AA7CFA0D8A4E9A452
:101C2000FAA4CF86D88AE98AFA8A2CA309A11AA134
:101C30002BA13CA109871A872B873C875A834983AC
:101C40008B839C83AD83BE836CE271E080E090E087
:101C50000E9415021FB7F8948091E003811127C0FC
:101C6000E4EAF0E08491E8EBF0E09491E82FF0E012
:101C7000EE0FFF1FE057FF4FA591B491EC91E923C0
:101C800021F461E08AE00E948D0161E08AE00E9417
:101C9000D9018CB580618CBD8CB580648CBD61E050
:101CA0008DE00E94D90161E08BE00E94D901809112
:101CB000E0038F5F8093E0031FBF229A80E590E0EE
:101CC0000E948F0C60E880E090E00E94F20B65E5D6
:101CD0008BE190E00E94F20B65E58AE190E00E94C2
:101CE000F20B0E948E0C80E090E4909308038093A6
:101CF000070380E090E69093100380930F0380E049
:101D000098E490930A038093090380E098E6909307
:101D100012038093110380E090E590930C0380936D
:101D20000B0380E090E7909314038093130380E00B
:101D300098E590930E0380930D0380E098E79093CD
:101D400016038093150380E590E00E948F0C46E017
:101D500050E062E071E089E090E00E94C30B44E053
:101D600050E0BE016D5F7F4F8FE090E00E94C30B9B
:101D700044E050E0BE01615F7F4F81E090E00E944F
:101D8000C30B44E050E0BE016B5E7F4F85E090E006
:101D90000E94C30B0E948E0C81E08C8789859A85F6
:101DA000AB85BC858093B6039093B703A093B8032B
:101DB000B093B903CE5BDF4F0FB6F894DEBF0FBE12
:101DC000CDBFDF91CF911F910F91FF90EF90DF90EA
:101DD000CF9008954F925F926F927F928F929F92D1
:101DE000AF92BF92CF92DF92EF92FF92CF93DF93A9
:101DF000EC016A017B019A01AB01C701B6010E94A7
:101E00008B1A882319F064EE72E01AC0460157015C
:101E1000E894B7F82FEF3FEF4FE75FE7C501B40154
:101E20000E948B1A811111C02FEF3FEF4FE75FE740
:101E3000C501B4010E94ED1818163CF468EE72E07A
:101E4000CE010E94C9127C0186C02FEF3FEF4FE701
:101E50005FE4C701B6010E94D31918161CF46CEE9A
:101E600072E0EECF2FEF3FEF4FE75FECC701B60117
:101E70000E94ED1887FDF3CF20E030E0A901C701F3
:101E8000B6010E94ED1887FF0AC06DE2CE010E94E4
:101E9000E5035C01F7FAF094F7F8F09402C0A12C86
:101EA000B12C2AE037ED43EA5BE3C701B6010E949B
:101EB00081182B013C010E94F2186B017C010E94E9
:101EC00021199B01AC01C301B2010E9480182B01B2
:101ED0003C012AE0B701A601CE010E949C037C01CF
:101EE000EA0CFB1C60EF72E0CE010E94C912E80E02
:101EF000F91E20E030E040E251E4C301B2010E944B
:101F0000D8192B013C010E94F2184B01A12CB12CD5
:101F10002AE0B501A401CE010E949C03E80EF91E3F
:101F2000C501B4010E9421199B01AC01C301B2019A
:101F30000E94801820E030E040E251E40E94D8196D
:101F40000E94F218AB0160E070E02AE0CE010E942E
:101F50009C03E80EF91E6AED71E0CE010E94C912E1
:101F60008E0D9F1DDF91CF91FF90EF90DF90CF906E
:101F7000BF90AF909F908F907F906F905F904F90A9
:101F800008958F929F92AF92BF92CF92DF92EF927D
:101F9000FF92CF93DF93A091D503882311F03A2FBE
:101FA00001C030E08091D60390E0880F991F8A57D6
:101FB0009F4FC090DB03D090DC03E090DD03F090F6
:101FC000DE0340E050E0BA01FC01C591D4912881C4
:101FD0002A2323130FC04A015B012FEF821A920AB2
:101FE000A20AB20A4C155D056E057F0538F4B501ED
:101FF000A401EACF342F252FCB0104C030E020E02C
:1020000080E090E0632F722FDF91CF91FF90EF90EF
:10201000DF90CF90BF90AF909F908F900895CF9218
:10202000DF92EF92FF920F931F93CF93DF936C0198
:102030007A018B01C0E0D0E0CE15DF0589F0D80130
:102040006D918D01D601ED91FC910190F081E02D13
:10205000C6010995892B11F47E0102C02196ECCFAF
:10206000C701DF91CF911F910F91FF90EF90DF900B
:10207000CF900895FC01918D828D981761F0828D2B
:10208000DF01A80FB11D5D968C91928D9F5F9F73AC
:10209000928F90E008958FEF9FEF0895FC01918D4E
:1020A000828D981731F0828DE80FF11D858D90E0BB
:1020B00008958FEF9FEF0895FC01918D228D892F58
:1020C00090E0805C9F4F821B91098F739927089540
:1020D00087E193E00E945C1021E0892B09F420E065
:1020E000822F0895FC01848DDF01A80FB11DA35A32
:1020F000BF4F2C91848D90E001968F739927848F28
:10210000A689B7892C93A089B1898C9180648C931E
:10211000938D848D981306C00288F389E02D808109
:102120008F7D80830895EF92FF920F931F93CF933B
:10213000DF93EC0181E0888F9B8D8C8D981305C017
:10214000E889F989808185FD24C0F62E0B8D10E089
:102150000F5F1F4F0F731127E02E8C8DE8120CC0FC
:102160000FB607FCFACFE889F989808185FFF5CFA2
:10217000CE010E947210F1CF8B8DFE01E80FF11D90
:10218000E35AFF4FF0820B8FEA89FB8980818062DE
:1021900007C0EE89FF896083E889F98980818064BE
:1021A000808381E090E0DF91CF911F910F91FF90AC
:1021B000EF900895CF93DF93EC01888D8823C9F0C9
:1021C000EA89FB89808185FD05C0A889B9898C9140
:1021D00086FD0FC00FB607FCF5CF808185FFF2CFDB
:1021E000A889B9898C9185FFEDCFCE010E9472102C
:1021F000E7CFDF91CF91089580E090E0892B29F01F
:102200000E94681081110C94000008950895CF93E6
:10221000DF931F92CDB7DEB76983DC01ED91FC91AE
:102220000280F381E02D41E050E0BE016F5F7F4FFF
:1022300009950F90DF91CF9108958F929F92AF9261
:10224000BF92CF92DF92EF92FF920F931F93CF93A3
:10225000DF937C01EB016C0182E0C80ED11C4701C9
:10226000E5E08E0E911C00E010E0F60141916F0157
:1022700050E060E070E02AE0CE010E949C035C0127
:10228000E881F9810190F081E02D6EE2CE0109959F
:102290008A0D9B1D080F191FC814D90431F7F701C7
:1022A000458150E060E070E02AE0CE010E949C038E
:1022B000800F911FDF91CF911F910F91FF90EF90B1
:1022C000DF90CF90BF90AF909F908F900895BF9276
:1022D000CF92DF92EF92FF920F931F93CF93DF93F2
:1022E00000D000D000D0CDB7DEB7FC01208D243067
:1022F00009F04CC06A017B018C01B12C63E070E0F5
:102300008B2D0E941E0C811103C0F801B08E06C0F7
:102310008831D9F3B394F4E0BF12F0CFF801808D87
:102320008430A1F196E0E4EDF1E0DE011196019038
:102330000D929A95E1F7F70193819F779C839481A1
:102340009D8395819E83B7016E5F7F4F0E94850CB0
:10235000B601F801808D0E94740CF801808D90E028
:10236000982F882746E050E0BE016F5F7F4F8A5F5D
:102370009B4F0E94C30BF801128E118E20E8A6011C
:1023800062E0808D0E945B0D81E001C080E02696B6
:102390000FB6F894DEBF0FBECDBFDF91CF911F9176
:1023A0000F91FF90EF90DF90CF90BF900895CF9363
:1023B000DF931F92CDB7DEB7FC01218D328D232B29
:1023C00049F0BE016F5F7F4F808D0E94920C898122
:1023D00090E002C08FEF9FEF0F90DF91CF910895B3
:1023E000CF93DF93FC01218D328D2115310519F436
:1023F0008FEF9FEF11C0EC014217530708F0A901BE
:10240000888D0E94DB0C1816190694F7298D3A8DD9
:10241000281B390B3A8F298FDF91CF9108950F93A5
:102420001F93CF93DF931F92CDB7DEB7FC01218DB1
:10243000328D232B61F08C0141E050E0BE016F5FD3
:102440007F4F808D0E94DB0C181619061CF08FEF51
:102450009FEF08C0F801818D928D0197928F818F37
:10246000898190E00F90DF91CF911F910F91089596
:102470000F931F93CF93DF93CDB7DEB728970FB697
:10248000F894DEBF0FBECDBF8C01F801818D928D17
:10249000892B49F0D801ED91FC910680F781E02D60
:1024A000C8010995F2CF808D0E94BB0C1816190641
:1024B0005CF548E050E0BE016F5F7F4FD801589651
:1024C0008C910E94DB0C9C0118161906DCF48981A2
:1024D0009A81AB81BC81F801808B918BA28BB38BED
:1024E0008D8190E0982F88272E81820F911D958BEA
:1024F000848B2F8130E0322F22278885280F311DD1
:10250000328F218FC90102C080E090E028960FB67B
:10251000F894DEBF0FBECDBFDF91CF911F910F9119
:102520000895AF92BF92CF92DF92FF920F931F93C5
:10253000CF93DF938C015B01EA01FC01C688D78849
:10254000F08C80E590E00E948F0C8F2D0E9471012D
:102550008C179D0720F48F2D0E947101EC019E01C4
:10256000A501B6018F2D0E940C010E948E0CF8016E
:10257000868997898C0F9D1F978B868BCE01DF9163
:10258000CF911F910F91FF90DF90CF90BF90AF90B0
:1025900008956115710579F0FB0101900020E9F7BC
:1025A0003197AF01461B570BDC01ED91FC91028086
:1025B000F381E02D099480E090E008951F920F923E
:1025C0000FB60F9211242F933F934F935F936F9306
:1025D0007F938F939F93AF93BF93EF93FF9387E185
:1025E00093E00E947210FF91EF91BF91AF919F9184
:1025F0008F917F916F915F914F913F912F910F90AC
:102600000FBE0F901F9018951F920F920FB60F924A
:1026100011242F938F939F93EF93FF93E0912703C0
:10262000F09128038081E0912D03F0912E0382FD2B
:1026300012C09081809130038F5F8F73209131039E
:10264000821751F0E0913003F0E0E95EFC4F958F86
:102650008093300301C08081FF91EF919F918F9112
:102660002F910F900FBE0F901F901895CF93DF936F
:10267000CDB7DEB7A7970FB6F894DEBF0FBECDBFBC
:10268000789484B5826084BD84B5816084BD85B54D
:10269000826085BD85B5816085BD80916E00816059
:1026A00080936E00109281008091810082608093FF
:1026B0008100809181008160809381008091800001
:1026C0008160809380008091B10084608093B1002C
:1026D0008091B00081608093B00080917A00846026
:1026E00080937A0080917A00826080937A00809152
:1026F0007A00816080937A0080917A00806880936C
:102700007A001092C10061E087E00E94D901E09157
:102710002703F091280382E08083E0912303F09166
:1027200024031082E0912503F09126038FEC80832F
:1027300010922F03E0912B03F0912C0386E080830D
:10274000E0912903F0912A03808180618083E091E8
:102750002903F0912A03808188608083E091290316
:10276000F0912A03808180688083E0912903F091B1
:102770002A0380818F7D80830CEC11E01A8309830A
:102780008091CA039091CB03A091CC03B091CD036B
:102790008B839C83AD83BE83CE0101960E94B90DCD
:1027A00082EC93E00E94C3096DED71E087E193E054
:1027B0000E94C9121A8309831B821C821D821E82F9
:1027C00080E590E00E948F0C44E050E0BE016D5F18
:1027D0007F4F8FE090E00E94930B0E948E0C67E188
:1027E00073E0CE0101960E941D116AED71E087E150
:1027F00093E00E94C9120CE211E082EC93E00E9487
:102800009C0A92EFC92E92E0D92EF12C1C821B82D9
:1028100088EE93E0A0E0B0E08D839E83AF83B8871D
:102820001A830983FD86D6012D913D916D0180911A
:10283000C6039091C7032817390739F5CE010196D1
:102840000E94BB09873111F08C31F9F4CE01019659
:102850000E940A04892BC9F08B819C81998B888BFB
:102860008D819E81AF81B8858A8B9B8BAC8BBD8B14
:1028700089859A85AB85BC858E8B9F8BA88FB98FF8
:102880001F870E878D858A8F11C0F394B4E0FB12E9
:10289000BDCF198A188A88EE93E0A0E0B0E08A8B59
:1028A0009B8BAC8BBD8B1F870E87FA8E8A8D8430F5
:1028B00009F4B5C264EF71E087E193E00E94B100D2
:1028C000FF24F394CE010E960E94300A882309F467
:1028D00096C2CE010E960E940A04892B99F3CE016E
:1028E0000E960E94A109282F682F87E193E02FA35D
:1028F0000E9493102FA12A3009F0C7C0FF2001F3D6
:1029000061E072E0CE010E960E94B10061E172E0DA
:10291000CE010E960E94B10060E372E0CE010E96E9
:102920000E94B1006AED71E0CE010E960E94C912BC
:1029300062E472E0CE010E960E94B10061E087E091
:102940000E948D010E945B028823B1F18091D40323
:102950008B3041F188F18551823070F56091CE0362
:1029600070E080E090E00E94211920E030E040E833
:1029700053E40E94D8196B017C018091CF03682F2A
:1029800070E080E090E00E9423199B01AC01C70138
:10299000B6010E9481182DEC3CEC4CEC5DE30E94EA
:1029A000D81907C06091CE0370E080E090E00E94EB
:1029B00021192B013C0106C0412C512C80EC682EC2
:1029C0008FE7782E0E945B02882309F42BC2809146
:1029D000D4038B3029F0F0F18551823068F03AC091
:1029E0006091D00370E080E090E00E9421196B8F2D
:1029F0007C8F8D8F9E8F36C0F090D0036F2D6F77B8
:102A000070E080E090E00E94231920E030E040E890
:102A100053E40E94D8194B015C016091D10370E02E
:102A200080E090E00E9423199B01AC01C501B40134
:102A30000E9481182DEC3CEC4CEC5DE30E94D8190F
:102A40006B8F7C8F8D8F9E8FF7FE0CC0DC01CB01CE
:102A5000B05804C080E090E0A0ECBFE78B8F9C8F63
:102A6000AD8FBE8FA3019201C301B2010E948B1AE8
:102A70008111D8C12B8D3C8D4D8D5E8DCA01B90160
:102A80000E948B1A882331F0CDC12D3009F41ACF62
:102A9000F12C18CF26E636E646EE5FE36B8D7C8D93
:102AA0008D8D9E8D0E94D81920E030E040E052E4E8
:102AB0000E9481186B017C0120E030E044E752E481
:102AC0000E9481184B015C0120E030E048E852E4AC
:102AD000C701B6010E9480182AE939E949E95FE394
:102AE0000E94D8199B01AC01C501B4010E94811854
:102AF0004B015C0122E133E840EC5DE3C301B2012C
:102B00000E94D8199B01AC01C501B4010E94811833
:102B100020E030E040E05FE30E94D8194B015C0107
:102B200020E030E04EE952E40E94D31918160CF070
:102B3000C5C0A7019601C701B6010E94D8196F8FC1
:102B400078A389A39AA3A3019201C301B2010E94B1
:102B5000D8196BA37CA38DA39EA321E133E243E0AC
:102B600050E4C701B6010E94D81929E134E849E2CE
:102B700052E40E9480184B015C0126E13BE442E2F2
:102B800051E4C301B2010E94D8199B01AC01C501F7
:102B9000B4010E9481184B015C0128E436E246E64C
:102BA0005EEBC701B6010E94D819A30192010E94F1
:102BB000D8199B01AC01C501B4010E9481184B01D9
:102BC0005C0120EE3FE040EE5BEB6F8D78A189A1C8
:102BD0009AA10E94D8199B01AC01C501B4010E94C1
:102BE00081184B015C0128EF37E840E65DEB6BA1F3
:102BF0007CA18DA19EA10E94D8199B01AC01C501A9
:102C0000B4010E9481184B015C012CEA3DE041EACD
:102C10005AE36F8D78A189A19AA10E94D819A301C6
:102C200092010E94D8199B01AC01C501B4010E9418
:102C300081184B015C0128EC3FE84FE55AE3C701DE
:102C4000B6010E94D8192BA13CA14DA15EA10E9402
:102C5000D8199B01AC01C501B4010E9481184B0138
:102C60005C0121EF3BE845E056EB6F8D78A189A12F
:102C70009AA10E94D8192BA13CA14DA15EA10E944E
:102C8000D8199B01AC01C501B4010E9481184B0108
:102C90005C0120E030E040E551E4C301B2010E9454
:102CA000ED1887FDC2C020E030E04AEA52E4C301DB
:102CB000B2010E94D31918160CF417C120E030E0BD
:102CC00040E052E4C501B4010E94801826E838E3D0
:102CD0004EE05FE30E94D8196B017C0180E4809391
:102CE0007C0080917A00806480937A0080917A00E1
:102CF00086FDFCCF809178002091790090E0922BA6
:102D00009093FB028093FA0260E087E00E948D01BD
:102D100064E472E0CE010E960E94B1006CE472E0B1
:102D2000CE010E960E94B10063E772E0CE010E96CE
:102D30000E94B10065E772E0CE010E960E94B100DC
:102D40004B8D5C8D6D8D7E8DCE010E960E94EA0EB0
:102D500063E772E0CE010E960E94B10064E872E073
:102D6000CE010E960E94B100B301A201CE010E96D3
:102D70000E94EA0E63E772E0CE010E960E94B10057
:102D80006FE872E0CE010E960E94B100B701A60175
:102D9000CE010E960E94EA0E63E772E0CE010E9617
:102DA0000E94B1006EE972E0CE010E960E94B10061
:102DB000C090FA02D090FB020D2C000CEE08FF0828
:102DC000F7FED9C06DE2CE010E960E94E5034427BE
:102DD0005527BA014C195D096E097F092AE0CE0119
:102DE0000E960E949C036AED71E0CE010E960E9441
:102DF000C9126DEA72E0CE010E960E94B10061E048
:102E000070E080E090E00E941502CE010E960E94D4
:102E1000540A6FEA72E087E193E00E94B1000E94D9
:102E2000FC10EBCC64EC72E0F6CF20E030E040EA3E
:102E300052E4C701B6010E94D31987FD34CF20E0C8
:102E400030E040EE52E4C701B6010E94ED181816BA
:102E50000CF495C0A301920160E070E080E591E47C
:102E60000E94801820E030E040E85EE30E94D8191C
:102E70006F8F78A389A39AA320E030E04EEB52E451
:102E8000C701B6010E9480186B017C0120E030E090
:102E9000A9010E94D31918164CF4A701960160E00D
:102EA00070E088E891E40E94801808C020E030E0DB
:102EB00048E851E4C701B6010E9481182EE33DEEB7
:102EC00040E75DE30E94D8190E944B1A9B01AC01B8
:102ED0006F8D78A189A19AA10E94D8199B01AC019C
:102EE000C501B4010E94801843C020E030E040EAF0
:102EF00052E4C701B6010E94D31987FDDFCE20E05E
:102F000030E04EEA52E4C701B6010E94ED181816EF
:102F10000CF4D4CE20E030E04AEA52E4C301B2011E
:102F20000E9480182DEC3CEC4CEC5DE30E94D8191B
:102F30006F8F78A389A39AA3A701960160E070E040
:102F40008EEA92E40E9480182DEC3CEC4CE45EE3A7
:102F50000E94D8199B01AC016F8D78A189A19AA11B
:102F60000E94D8199B01AC01C501B4010E948118CF
:102F70004B015C01A3CE2AE0B701A60130CF20E0CF
:102F800030E04AEA52E4C301B2010E94D319181694
:102F90000CF4B5CF93CEE1EEF3E08CEC91E09183AD
:102FA00080831282138214821582E7E1F3E0138298
:102FB000128248EE53E060E070E0448355836683FC
:102FC00077832AE931E03183208325EC30E03587AF
:102FD000248724EC30E03787268720EC30E0318BE3
:102FE000208B21EC30E0338B228B22EC30E0358BD0
:102FF000248B26EC30E0378B268B118E128E138EAD
:10300000148EE7EEF3E091838083128213821482A0
:103010001582EDEEF3E09183808312821382148295
:103020001582E3EFF3E0918380831282138214828E
:103030001582E9EFF3E09183808312821382148278
:103040001582E4EBF3E09183808312821382148271
:103050001582ECEBF3E09183808312821382148259
:103060001582EFEFF3E09183808312821382148242
:103070001582E5E0F4E0918380831282138214824A
:103080001582AEECB3E022E015962C9315972BE059
:1030900016962C931697E0EBF0E0E4911796EC93DC
:1030A0001797ECE9F0E0E4911896EC93189740E854
:1030B0005EE360E070E01D964D935D936D937C93AD
:1030C0005097E8ECF3E0918380838CEA828380E17F
:1030D000838381E0848387EC8583E2ECF3E01382D1
:1030E00012828AEB91E09183808380E99FE195834E
:1030F00084830895EE0FFF1F0590F491E02D09944D
:103100005058BB27AA270E9498180C9499190E941E
:103110008B1938F00E94921920F039F49F3F19F46E
:1031200026F40C9488190EF4E095E7FB0C948219B0
:10313000E92F0E94AA1958F3BA1762077307840788
:10314000950720F079F4A6F50C94CC190EF4E095CF
:103150000B2EBA2FA02D0B01B90190010C01CA0151
:10316000A0011124FF27591B99F0593F50F4503EFC
:1031700068F11A16F040A22F232F342F4427585FEE
:10318000F3CF469537952795A795F0405395C9F706
:103190007EF41F16BA0B620B730B840BBAF09150BE
:1031A000A1F0FF0FBB1F661F771F881FC2F70EC05D
:1031B000BA0F621F731F841F48F487957795679530
:1031C000B795F7959E3F08F0B0CF9395880F08F01C
:1031D0009927EE0F9795879508950E945E1908F438
:1031E00081E008950E94B21988F09F5798F0B92F96
:1031F0009927B751B0F0E1F0660F771F881F991F2C
:103200001AF0BA95C9F714C0B13091F00E94CC19E8
:10321000B1E008950C94CC19672F782F8827B85FF8
:1032200039F0B93FCCF3869577956795B395D9F783
:103230003EF490958095709561957F4F8F4F9F4F8D
:103240000895E89409C097FB3EF490958095709599
:1032500061957F4F8F4F9F4F9923A9F0F92F96E9E2
:10326000BB279395F695879577956795B795F11157
:10327000F8CFFAF4BB0F11F460FF1BC06F5F7F4FF4
:103280008F4F9F4F16C0882311F096E911C0772306
:1032900021F09EE8872F762F05C0662371F096E80F
:1032A000862F70E060E02AF09A95660F771F881FDE
:1032B000DAF7880F9695879597F90895990F000882
:1032C000550FAA0BE0E8FEEF16161706E807F907F8
:1032D000C0F012161306E407F50798F0621B730B93
:1032E000840B950B39F40A2661F0232B242B252B14
:1032F00021F408950A2609F4A140A6958FEF811DB7
:10330000811D089597F99F6780E870E060E0089557
:103310009FEF80EC089500240A94161617061806ED
:103320000906089500240A941216130614060506C9
:103330000895092E0394000C11F4882352F0BB0F5A
:1033400040F4BF2B11F460FF04C06F5F7F4F8F4FBD
:103350009F4F089557FD9058440F551F59F05F3FF8
:1033600071F04795880F97FB991F61F09F3F79F0A7
:1033700087950895121613061406551FF2CF469529
:10338000F1DF08C0161617061806991FF1CF8695AB
:103390007105610508940895E894BB27662777278F
:1033A000CB0197F908950E945E1908F48FEF0895F4
:1033B0000E94EB190C9499190E948B1938F00E9405
:1033C000921920F0952311F00C9482190C9488190D
:1033D00011240C94CD190E94AA1970F3959FC1F382
:1033E000950F50E0551F629FF001729FBB27F00DB3
:1033F000B11D639FAA27F00DB11DAA1F649F662708
:10340000B00DA11D661F829F2227B00DA11D621F56
:10341000739FB00DA11D621F839FA00D611D221F10
:10342000749F3327A00D611D231F849F600D211DF4
:10343000822F762F6A2F11249F5750409AF0F1F077
:1034400088234AF0EE0FFF1FBB1F661F771F881FE0
:1034500091505040A9F79E3F510580F00C9482197D
:103460000C94CD195F3FE4F3983ED4F3869577959D
:103470006795B795F795E7959F5FC1F7FE2B880F86
:10348000911D9695879597F9089519F416F40C9463
:1034900088190C94901A0E94B219B8F39923C9F3B1
:1034A000B6F39F57550B87FF0E949E1A0024A0E693
:1034B00040EA900180585695979528F4805C660FF5
:1034C000771F881F20F026173707480730F4621B44
:1034D000730B840B202931294A2BA6951794079446
:1034E000202531254A2758F7660F771F881F20F0BF
:1034F00026173707480730F4620B730B840B200D37
:10350000311D411DA09581F7B901842F9158880F75
:103510009695879508950E945E19880B990B0895DA
:103520009F3F31F0915020F4879577956795B79537
:10353000880F911D9695879597F908959150504061
:10354000660F771F881FD2F7089581E090E0F89406
:103550000C94CC1AA1E21A2EAA1BBB1BFD010DC0B4
:10356000AA1FBB1FEE1FFF1FA217B307E407F50733
:1035700020F0A21BB30BE40BF50B661F771F881F0F
:10358000991F1A9469F760957095809590959B01A5
:0C359000AC01BD01CF010895F894FFCFFD
:10359C0000C0DEADBEEFFEED01000000000000003B
:1035AC00C500C500C500C500C500C500C500C500E7
:1035BC00C500C500C500C50000000000E5031304EC
:1035CC000A04A1097A095308920498079D09540A20
:1035DC00300A4B08070405044008FB0300000000F8
:1035EC00C500C500C500C500C500C500C500C500A7
:1035FC00C500C500C500C500C500C500C500C50097
:10360C0000000000071191120B080F12D7110611C0
:10361C004D0938098C08C50854083812F0112308D4
:10362C0013080F0867110000000093100F105C10B6
:10363C003A104E10DA1000000000C5000F10C50043
:10364C00C500C500C500000000002A08170BC309FF
:10365C0000000000C5000F10000000001D1100004C
:10366C000000C50001005E0000000D0A00536572E9
:10367C007669646F7220696E69636961646F206535
:10368C006D3A20004E6F766F20436C69656E7465E1
:10369C0000485454502F312E3120323030204F4BB3
:1036AC0000436F6E74656E742D547970653A2061A9
:1036BC0070706C69636174696F6E2F6A736F6E00E2
:1036CC00436F6E6E656374696F6E3A20636C6F73D3
:1036DC0065007B002267756964223A0022626539B5
:1036EC0030643762342D653432652D343130632DBE
:1036FC00386266612D35326264313862623234630D
:10370C003822002C002274656D70657261747572BC
:10371C0061223A0022756D6964616465223A002267
:10372C00696E6469636543616C6F72223A00226949
:10373C006C756D696E616E636961223A007D004340
:10374C006C69656E746520646573636F6E65637414
:10375C0061646F004661696C656420746F207265EA
:10376C0061642066726F6D204448542073656E73DB
:10377C006F7221006E616E00696E66006F76660076
:02378C002E000D
:00000001FF
